{
  "_format": "hh-sol-artifact-1",
  "contractName": "WavePortal",
  "sourceName": "contracts/WavePortal.sol",
  "abi": [
    {
      "inputs": [],
      "name": "getTotalWaves",
      "outputs": [
        {
          "internalType": "uint256",
          "name": "",
          "type": "uint256"
        }
      ],
      "stateMutability": "view",
      "type": "function"
    },
    {
      "inputs": [
        {
          "internalType": "address",
          "name": "waversAddress",
          "type": "address"
        }
      ],
      "name": "getTotalWavesForAddress",
      "outputs": [
        {
          "internalType": "uint256",
          "name": "",
          "type": "uint256"
        }
      ],
      "stateMutability": "view",
      "type": "function"
    },
    {
      "inputs": [],
      "name": "wave",
      "outputs": [],
      "stateMutability": "nonpayable",
      "type": "function"
    },
    {
      "inputs": [
        {
          "internalType": "address",
          "name": "",
          "type": "address"
        }
      ],
      "name": "wavers",
      "outputs": [
        {
          "internalType": "uint256",
          "name": "",
          "type": "uint256"
        }
      ],
      "stateMutability": "view",
      "type": "function"
    }
  ],
  "bytecode": "0x608060405234801561001057600080fd5b506105f2806100206000396000f3fe608060405234801561001057600080fd5b506004361061004c5760003560e01c80636fe15b441461005157806399dea1db1461005b5780639a2cdc081461008b578063d6d8960d146100a9575b600080fd5b6100596100d9565b005b610075600480360381019061007091906103f9565b610189565b604051610082919061043f565b60405180910390f35b6100936101d2565b6040516100a0919061043f565b60405180910390f35b6100c360048036038101906100be91906103f9565b61021d565b6040516100d0919061043f565b60405180910390f35b60018060003373ffffffffffffffffffffffffffffffffffffffff1673ffffffffffffffffffffffffffffffffffffffff16815260200190815260200160002060008282546101289190610489565b9250508190555060016000808282546101419190610489565b925050819055506101876040518060400160405280600d81526020017f257320686173207761766564210000000000000000000000000000000000000081525033610235565b565b6000600160008373ffffffffffffffffffffffffffffffffffffffff1673ffffffffffffffffffffffffffffffffffffffff168152602001908152602001600020549050919050565b60006102156040518060400160405280601781526020017f5765206861766520256420746f74616c207761766573210000000000000000008152506000546102d1565b600054905090565b60016020528060005260406000206000915090505481565b6102cd828260405160240161024b92919061055c565b6040516020818303038152906040527f319af333000000000000000000000000000000000000000000000000000000007bffffffffffffffffffffffffffffffffffffffffffffffffffffffff19166020820180517bffffffffffffffffffffffffffffffffffffffffffffffffffffffff838183161783525050505061036d565b5050565b61036982826040516024016102e792919061058c565b6040516020818303038152906040527fb60e72cc000000000000000000000000000000000000000000000000000000007bffffffffffffffffffffffffffffffffffffffffffffffffffffffff19166020820180517bffffffffffffffffffffffffffffffffffffffffffffffffffffffff838183161783525050505061036d565b5050565b60008151905060006a636f6e736f6c652e6c6f679050602083016000808483855afa5050505050565b600080fd5b600073ffffffffffffffffffffffffffffffffffffffff82169050919050565b60006103c68261039b565b9050919050565b6103d6816103bb565b81146103e157600080fd5b50565b6000813590506103f3816103cd565b92915050565b60006020828403121561040f5761040e610396565b5b600061041d848285016103e4565b91505092915050565b6000819050919050565b61043981610426565b82525050565b60006020820190506104546000830184610430565b92915050565b7f4e487b7100000000000000000000000000000000000000000000000000000000600052601160045260246000fd5b600061049482610426565b915061049f83610426565b92508282019050808211156104b7576104b661045a565b5b92915050565b600081519050919050565b600082825260208201905092915050565b60005b838110156104f75780820151818401526020810190506104dc565b60008484015250505050565b6000601f19601f8301169050919050565b600061051f826104bd565b61052981856104c8565b93506105398185602086016104d9565b61054281610503565b840191505092915050565b610556816103bb565b82525050565b600060408201905081810360008301526105768185610514565b9050610585602083018461054d565b9392505050565b600060408201905081810360008301526105a68185610514565b90506105b56020830184610430565b939250505056fea2646970667358221220d6aa6fb6a6d360470863180bef973ddca4c3e80d5e59df8a8c302425c7d41ef864736f6c63430008110033",
  "linkReferences": {},
  "deployedLinkReferences": {}
}