{
  "_format": "hh-sol-artifact-1",
  "contractName": "WavePortal",
  "sourceName": "contracts/WavePortal.sol",
  "abi": [
    {
      "inputs": [],
      "stateMutability": "payable",
      "type": "constructor"
    },
    {
      "anonymous": false,
      "inputs": [
        {
          "indexed": true,
          "internalType": "address",
          "name": "from",
          "type": "address"
        },
        {
          "indexed": false,
          "internalType": "uint256",
          "name": "timestamp",
          "type": "uint256"
        },
        {
          "indexed": false,
          "internalType": "string",
          "name": "message",
          "type": "string"
        }
      ],
      "name": "NewWave",
      "type": "event"
    },
    {
      "inputs": [],
      "name": "getAllWaves",
      "outputs": [
        {
          "components": [
            {
              "internalType": "address",
              "name": "wave",
              "type": "address"
            },
            {
              "internalType": "string",
              "name": "message",
              "type": "string"
            },
            {
              "internalType": "uint256",
              "name": "timestamp",
              "type": "uint256"
            }
          ],
          "internalType": "struct WavePortal.Wave[]",
          "name": "",
          "type": "tuple[]"
        }
      ],
      "stateMutability": "view",
      "type": "function"
    },
    {
      "inputs": [],
      "name": "getTotalWaves",
      "outputs": [
        {
          "internalType": "uint256",
          "name": "",
          "type": "uint256"
        }
      ],
      "stateMutability": "view",
      "type": "function"
    },
    {
      "inputs": [
        {
          "internalType": "address",
          "name": "waversAddress",
          "type": "address"
        }
      ],
      "name": "getTotalWavesForAddress",
      "outputs": [
        {
          "internalType": "uint256",
          "name": "",
          "type": "uint256"
        }
      ],
      "stateMutability": "view",
      "type": "function"
    },
    {
      "inputs": [
        {
          "internalType": "address",
          "name": "",
          "type": "address"
        }
      ],
      "name": "lastWavedAt",
      "outputs": [
        {
          "internalType": "uint256",
          "name": "",
          "type": "uint256"
        }
      ],
      "stateMutability": "view",
      "type": "function"
    },
    {
      "inputs": [
        {
          "internalType": "string",
          "name": "_message",
          "type": "string"
        }
      ],
      "name": "wave",
      "outputs": [],
      "stateMutability": "nonpayable",
      "type": "function"
    },
    {
      "inputs": [
        {
          "internalType": "address",
          "name": "",
          "type": "address"
        }
      ],
      "name": "wavers",
      "outputs": [
        {
          "internalType": "uint256",
          "name": "",
          "type": "uint256"
        }
      ],
      "stateMutability": "view",
      "type": "function"
    }
  ],
  "bytecode": "0x60806040526200004f6040518060400160405280601981526020017f57652068617665206265656e20636f6e737472756374656421000000000000008152506200007760201b620007701760201c565b606444426200005f91906200017c565b6200006b9190620001e6565b600481905550620002dc565b62000117816040516024016200008e9190620002b8565b6040516020818303038152906040527f41304fac000000000000000000000000000000000000000000000000000000007bffffffffffffffffffffffffffffffffffffffffffffffffffffffff19166020820180517bffffffffffffffffffffffffffffffffffffffffffffffffffffffff83818316178352505050506200011a60201b60201c565b50565b60008151905060006a636f6e736f6c652e6c6f679050602083016000808483855afa5050505050565b6000819050919050565b7f4e487b7100000000000000000000000000000000000000000000000000000000600052601160045260246000fd5b6000620001898262000143565b9150620001968362000143565b9250828201905080821115620001b157620001b06200014d565b5b92915050565b7f4e487b7100000000000000000000000000000000000000000000000000000000600052601260045260246000fd5b6000620001f38262000143565b9150620002008362000143565b925082620002135762000212620001b7565b5b828206905092915050565b600081519050919050565b600082825260208201905092915050565b60005b838110156200025a5780820151818401526020810190506200023d565b60008484015250505050565b6000601f19601f8301169050919050565b600062000284826200021e565b62000290818562000229565b9350620002a28185602086016200023a565b620002ad8162000266565b840191505092915050565b60006020820190508181036000830152620002d4818462000277565b905092915050565b6114b980620002ec6000396000f3fe608060405234801561001057600080fd5b50600436106100625760003560e01c8063449d46c01461006757806399dea1db146100835780639a2cdc08146100b3578063a42a4663146100d1578063bd43a90814610101578063d6d8960d1461011f575b600080fd5b610081600480360381019061007c9190610ac7565b61014f565b005b61009d60048036038101906100989190610b6e565b61055c565b6040516100aa9190610bb4565b60405180910390f35b6100bb6105a4565b6040516100c89190610bb4565b60405180910390f35b6100eb60048036038101906100e69190610b6e565b6105ef565b6040516100f89190610bb4565b60405180910390f35b610109610607565b6040516101169190610d7e565b60405180910390f35b61013960048036038101906101349190610b6e565b610758565b6040516101469190610bb4565b60405180910390f35b60016000803373ffffffffffffffffffffffffffffffffffffffff1673ffffffffffffffffffffffffffffffffffffffff168152602001908152602001600020600082825461019e9190610dcf565b925050819055506001600260008282546101b89190610dcf565b925050819055506101ff6040518060400160405280601a81526020017f25732068617320776176656420616e64207361696420272573270000000000008152503383610809565b42610384600160003373ffffffffffffffffffffffffffffffffffffffff1673ffffffffffffffffffffffffffffffffffffffff1681526020019081526020016000205461024d9190610dcf565b1061028d576040517f08c379a000000000000000000000000000000000000000000000000000000000815260040161028490610e86565b60405180910390fd5b42600160003373ffffffffffffffffffffffffffffffffffffffff1673ffffffffffffffffffffffffffffffffffffffff16815260200190815260200160002081905550600360405180606001604052803373ffffffffffffffffffffffffffffffffffffffff16815260200183815260200142815250908060018154018082558091505060019003906000526020600020906003020160009091909190915060008201518160000160006101000a81548173ffffffffffffffffffffffffffffffffffffffff021916908373ffffffffffffffffffffffffffffffffffffffff160217905550602082015181600101908161038991906110b2565b50604082015181600201555050606460045444426103a79190610dcf565b6103b19190610dcf565b6103bb91906111b3565b6004819055506104026040518060400160405280601681526020017f52616e646f6d20232067656e6572617465643a202564000000000000000000008152506004546108a8565b603260045411610509576000655af3107a400090504781111561045a576040517f08c379a00000000000000000000000000000000000000000000000000000000081526004016104519061127c565b60405180910390fd5b60003373ffffffffffffffffffffffffffffffffffffffff1682604051610480906112cd565b60006040518083038185875af1925050503d80600081146104bd576040519150601f19603f3d011682016040523d82523d6000602084013e6104c2565b606091505b5050905080610506576040517f08c379a00000000000000000000000000000000000000000000000000000000081526004016104fd90611354565b60405180910390fd5b50505b3373ffffffffffffffffffffffffffffffffffffffff167f5f7e16dc676677766a70e9c5628aa6c54ddb8b6e5188e2ae1e1f17f1ffbea71642836040516105519291906113ad565b60405180910390a250565b60008060008373ffffffffffffffffffffffffffffffffffffffff1673ffffffffffffffffffffffffffffffffffffffff168152602001908152602001600020549050919050565b60006105e76040518060400160405280601781526020017f5765206861766520256420746f74616c207761766573210000000000000000008152506002546108a8565b600254905090565b60016020528060005260406000206000915090505481565b60606003805480602002602001604051908101604052809291908181526020016000905b8282101561074f57838290600052602060002090600302016040518060600160405290816000820160009054906101000a900473ffffffffffffffffffffffffffffffffffffffff1673ffffffffffffffffffffffffffffffffffffffff1673ffffffffffffffffffffffffffffffffffffffff1681526020016001820180546106b490610ed5565b80601f01602080910402602001604051908101604052809291908181526020018280546106e090610ed5565b801561072d5780601f106107025761010080835404028352916020019161072d565b820191906000526020600020905b81548152906001019060200180831161071057829003601f168201915b505050505081526020016002820154815250508152602001906001019061062b565b50505050905090565b60006020528060005260406000206000915090505481565b6108068160405160240161078491906113dd565b6040516020818303038152906040527f41304fac000000000000000000000000000000000000000000000000000000007bffffffffffffffffffffffffffffffffffffffffffffffffffffffff19166020820180517bffffffffffffffffffffffffffffffffffffffffffffffffffffffff8381831617835250505050610944565b50565b6108a38383836040516024016108219392919061140e565b6040516020818303038152906040527fe0e9ad4f000000000000000000000000000000000000000000000000000000007bffffffffffffffffffffffffffffffffffffffffffffffffffffffff19166020820180517bffffffffffffffffffffffffffffffffffffffffffffffffffffffff8381831617835250505050610944565b505050565b61094082826040516024016108be929190611453565b6040516020818303038152906040527fb60e72cc000000000000000000000000000000000000000000000000000000007bffffffffffffffffffffffffffffffffffffffffffffffffffffffff19166020820180517bffffffffffffffffffffffffffffffffffffffffffffffffffffffff8381831617835250505050610944565b5050565b60008151905060006a636f6e736f6c652e6c6f679050602083016000808483855afa5050505050565b6000604051905090565b600080fd5b600080fd5b600080fd5b600080fd5b6000601f19601f8301169050919050565b7f4e487b7100000000000000000000000000000000000000000000000000000000600052604160045260246000fd5b6109d48261098b565b810181811067ffffffffffffffff821117156109f3576109f261099c565b5b80604052505050565b6000610a0661096d565b9050610a1282826109cb565b919050565b600067ffffffffffffffff821115610a3257610a3161099c565b5b610a3b8261098b565b9050602081019050919050565b82818337600083830152505050565b6000610a6a610a6584610a17565b6109fc565b905082815260208101848484011115610a8657610a85610986565b5b610a91848285610a48565b509392505050565b600082601f830112610aae57610aad610981565b5b8135610abe848260208601610a57565b91505092915050565b600060208284031215610add57610adc610977565b5b600082013567ffffffffffffffff811115610afb57610afa61097c565b5b610b0784828501610a99565b91505092915050565b600073ffffffffffffffffffffffffffffffffffffffff82169050919050565b6000610b3b82610b10565b9050919050565b610b4b81610b30565b8114610b5657600080fd5b50565b600081359050610b6881610b42565b92915050565b600060208284031215610b8457610b83610977565b5b6000610b9284828501610b59565b91505092915050565b6000819050919050565b610bae81610b9b565b82525050565b6000602082019050610bc96000830184610ba5565b92915050565b600081519050919050565b600082825260208201905092915050565b6000819050602082019050919050565b610c0481610b30565b82525050565b600081519050919050565b600082825260208201905092915050565b60005b83811015610c44578082015181840152602081019050610c29565b60008484015250505050565b6000610c5b82610c0a565b610c658185610c15565b9350610c75818560208601610c26565b610c7e8161098b565b840191505092915050565b610c9281610b9b565b82525050565b6000606083016000830151610cb06000860182610bfb565b5060208301518482036020860152610cc88282610c50565b9150506040830151610cdd6040860182610c89565b508091505092915050565b6000610cf48383610c98565b905092915050565b6000602082019050919050565b6000610d1482610bcf565b610d1e8185610bda565b935083602082028501610d3085610beb565b8060005b85811015610d6c5784840389528151610d4d8582610ce8565b9450610d5883610cfc565b925060208a01995050600181019050610d34565b50829750879550505050505092915050565b60006020820190508181036000830152610d988184610d09565b905092915050565b7f4e487b7100000000000000000000000000000000000000000000000000000000600052601160045260246000fd5b6000610dda82610b9b565b9150610de583610b9b565b9250828201905080821115610dfd57610dfc610da0565b5b92915050565b600082825260208201905092915050565b7f4d7573742077616974203135206d696e75746573206265666f726520796f752060008201527f63616e2073656e6420616e6f74686572206d6573736167652e00000000000000602082015250565b6000610e70603983610e03565b9150610e7b82610e14565b604082019050919050565b60006020820190508181036000830152610e9f81610e63565b9050919050565b7f4e487b7100000000000000000000000000000000000000000000000000000000600052602260045260246000fd5b60006002820490506001821680610eed57607f821691505b602082108103610f0057610eff610ea6565b5b50919050565b60008190508160005260206000209050919050565b60006020601f8301049050919050565b600082821b905092915050565b600060088302610f687fffffffffffffffffffffffffffffffffffffffffffffffffffffffffffffffff82610f2b565b610f728683610f2b565b95508019841693508086168417925050509392505050565b6000819050919050565b6000610faf610faa610fa584610b9b565b610f8a565b610b9b565b9050919050565b6000819050919050565b610fc983610f94565b610fdd610fd582610fb6565b848454610f38565b825550505050565b600090565b610ff2610fe5565b610ffd818484610fc0565b505050565b5b8181101561102157611016600082610fea565b600181019050611003565b5050565b601f8211156110665761103781610f06565b61104084610f1b565b8101602085101561104f578190505b61106361105b85610f1b565b830182611002565b50505b505050565b600082821c905092915050565b60006110896000198460080261106b565b1980831691505092915050565b60006110a28383611078565b9150826002028217905092915050565b6110bb82610c0a565b67ffffffffffffffff8111156110d4576110d361099c565b5b6110de8254610ed5565b6110e9828285611025565b600060209050601f83116001811461111c576000841561110a578287015190505b6111148582611096565b86555061117c565b601f19841661112a86610f06565b60005b828110156111525784890151825560018201915060208501945060208101905061112d565b8683101561116f578489015161116b601f891682611078565b8355505b6001600288020188555050505b505050505050565b7f4e487b7100000000000000000000000000000000000000000000000000000000600052601260045260246000fd5b60006111be82610b9b565b91506111c983610b9b565b9250826111d9576111d8611184565b5b828206905092915050565b7f54686520636f6e747261637420646f6573206e6f74206861766520656e6f756760008201527f68206d6f6e657920666f72206120302e3030303120455448207769746864726160208201527f772e000000000000000000000000000000000000000000000000000000000000604082015250565b6000611266604283610e03565b9150611271826111e4565b606082019050919050565b6000602082019050818103600083015261129581611259565b9050919050565b600081905092915050565b50565b60006112b760008361129c565b91506112c2826112a7565b600082019050919050565b60006112d8826112aa565b9150819050919050565b7f4661696c656420746f207769746864726177206d6f6e65792066726f6d20636f60008201527f6e74726163740000000000000000000000000000000000000000000000000000602082015250565b600061133e602683610e03565b9150611349826112e2565b604082019050919050565b6000602082019050818103600083015261136d81611331565b9050919050565b600061137f82610c0a565b6113898185610e03565b9350611399818560208601610c26565b6113a28161098b565b840191505092915050565b60006040820190506113c26000830185610ba5565b81810360208301526113d48184611374565b90509392505050565b600060208201905081810360008301526113f78184611374565b905092915050565b61140881610b30565b82525050565b600060608201905081810360008301526114288186611374565b905061143760208301856113ff565b81810360408301526114498184611374565b9050949350505050565b6000604082019050818103600083015261146d8185611374565b905061147c6020830184610ba5565b939250505056fea26469706673582212204b74e1f62dc0515e2e005fe01c6fdf9f5b7130ae609e658af0e6880ba7ed0fe164736f6c63430008110033",
  "linkReferences": {},
  "deployedLinkReferences": {}
}